:1000000012C02CC02BC02AC029C028C027C026C0BF
:1000100025C024C023C022C021C020C01FC01EC0D4
:100020001DC01CC01BC011241FBECFE5D4E0DEBF25
:10003000CDBF10E0A0E6B0E0E2EDF3E002C0059035
:100040000D92AE3DB107D9F720E0AEEDB0E001C0B2
:100050001D92AF3DB207E1F7FED0B9C1D1CF5D9B94
:10006000FECF8CB908950F931F93CF93FC0180812D
:10007000882351F08F01C0E0F2DFCF5FF801EC0F71
:10008000F11D80818111F8CFCF911F910F910895BB
:100090008EEFE5DF88E5E3DF0895FADF8EEFDFDF3F
:1000A00082E4DDDF80E0DBDF8EEFD9DF84E4D7DFC1
:1000B0008EEFD5DF82E8D3DF8EEFD1DF88E4CFDFAC
:1000C0000895CF93DF93EC01FB019B01ADECBCECF9
:1000D00072D1AC01569547955695479556954795DB
:1000E0009A01220F331FCA01880F991F880F991F89
:1000F000880F991F820F931F9F01281B390BC9017D
:10010000805D8A839A0157D19695879596958795B4
:10011000969587959C01220F331F880F991F880F92
:10012000991F880F991F820F931F481B590B405D21
:1001300049839F013695279536952795ABE7B4E11E
:100140003AD196958795805D8883DF91CF91089508
:100150008091600084DF0895CF93DF93D82FC62F5E
:100160008EEF7DDF87E47BDF8D2F79DF8C2F77DFCC
:10017000DF91CF91089561E081E0EEDF89EC90E0BE
:1001800072DF62E081E0E8DF84EB90E06CDF2FEF6C
:100190008FE395E6215080409040E1F700C00000D9
:1001A000089576DF61E081E0D7DF8FE990E05BDFE3
:1001B00008951F93CF93DF93182F62E081E0CCDF87
:1001C000112351F0C0E08FEF4ADFCF5F1C13FBCF4C
:1001D000D4E1D11B11F407C0D4E1C0E080E23FDFDD
:1001E000CF5FCD17D8F3DF91CF911F91089561E0D4
:1001F00083E0B2DF87E690E036DF61E08FE0ACDFDE
:1002000081E690E030DFA4DF8091DE00D2DF089548
:10021000CF93C82F62E081E09FDFC23021F48AE8EB
:1002200090E021DF03C085E790E01DDF61E083E01F
:1002300093DF81E790E017DF61E08FE08DDF8BE6F1
:1002400090E011DF85DFCF9108958AE090E0000013
:100250000197E9F7089581B38A6181BB82B312BA2D
:10026000939A949A10BC87E489B980B5866880BD5A
:10027000539A1BB829E989E591E0215080409040CC
:10028000E1F700000ADF77DF8CDFD12C712CC12C65
:100290000F2EF6E6EF2EF0E0FF2EF02D0F2EFBEDE9
:1002A0005F2EF02D0F2EF1EA6F2EF02D0F2EF4E1C0
:1002B0004F2EF02D9398C9DF9498C7DF1AE0B12C28
:1002C000C72DDC2D949AC1DF80B382FB882780F98B
:1002D000CC0FDD1FC82BB80E9498B7DF115091F7E3
:1002E00001E610E0949AB1DF80B382FB882780F9A1
:1002F00090E3980FF80191938F01B80E9498A5DFC1
:10030000E016F10679F7949AA0DF80B382FB882784
:1003100080F9B80E939AD394D2FC03C06092600027
:1003200002C050926000B1100AC082E071DFF6E6B0
:1003300026E082E0F15020408040E1F7BBCFB0FEE4
:100340000AC081E065DF96E6E6E0F2E09150E04029
:10035000F040E1F7AFCF9E01A8E6B1E02CD04B0111
:100360005C01072E7AE0B694A794979487947A95C7
:10037000D1F7702DB40187E690E0A3DE26E6821661
:1003800021E0920618F04092DE000CC09401AFE824
:10039000B3EE11D0929582958F7089279F7089272F
:1003A0008093DE0024DF86E696E0E2E08150904014
:1003B000E040E1F77FCFA29FB001B39FC001A39FB0
:1003C00001D0B29F700D811D1124911D0895F894E4
:0203D000FFCF5D
:1003D2002A2D2D2D2D2D002D2D2D002D2D2D2D2DA8
:1003E200002D2D2D0020202050617269747920206B
:1003F2006572726F72212020200053656E736F72D6
:1004020020646973636F6E6E65637465642100E0D6
:100412003D2D2D2DDF20737461747573202D2D2DCC
:100422002D2D2A007777772E6769746875622E639F
:100432006F6D2F3478316D640044696D61204D2EEB
:0E04420020203035302D30303030303030005A
:00000001FF
